:020000040800F2
:1000000030E100206D0300088D5D000861030008E9
:10001000895D00085D1F000869A500080000000058
:10002000000000000000000000000000C9020008FD
:1000300099200008000000000D0300085D7800080A
:100040008703000887030008870300088703000868
:100050008703000887030008870300088703000858
:100060008703000887030008870300088703000848
:100070008703000887030008870300088703000838
:100080008703000887030008870300088703000828
:100090009DA2000887030008870300088703000863
:1000A0008703000815790008870300088703000804
:1000B00025790008870300088703000887030008E4
:1000C00087030008870300088703000887030008E8
:1000D00087030008457B00088703000887030008A2
:1000E00087030008870300088703000887030008C8
:1000F00087030008870300088703000887030008B8
:1001000087030008870300088703000887030008A7
:100110008703000887030008870300088703000897
:100120008703000887030008870300088703000887
:1001300000F002F800F0B0F80AA090E8000C824449
:100140008344AAF10107DA4501D100F0A5F8AFF226
:10015000090EBAE80F0013F0010F18BFFB1A43F0A5
:1001600001031847E8AA030008AB03000A444FF054
:10017000000C10F8013B13F0070408BF10F8014B06
:100180001D1108BF10F8015B641E05D010F8016B4B
:10019000641E01F8016BF9D113F0080F1EBF10F8AF
:1001A000014BAD1C0C1B09D16D1E58BF01F801CBD2
:1001B000FAD505E014F8016B01F8016B6D1EF9D555
:1001C0009142D6D37047000000230024002500266A
:1001D000103A28BF78C1FBD8520728BF30C148BFAA
:1001E0000B6070476E2900F0B581702900F09B828A
:1001F00066290FF0358265290FF0328267290FF0EA
:100200002F8261290FF02E8203681B0A28BF41F05C
:100210008001692900F06281642900F05F817529FD
:1002200000F05C816F2900F02882782900F0678255
:10023000E92900F0D184E42900F0CE84F52900F00A
:10024000CB84EF2900F02582F82900F0668203684C
:10025000DB0928BF41F08001632900F088847329FD
:1002600000F08D84E32900F0AB84F32900F0B08422
:10027000002070471FB501F02FF904000020002175
:100280000FF0C2F9401C6060002000210FF0D2F98D
:10029000E0601FBD10B510BD01F0F8F81146FFF782
:1002A000E9FF0CF0C7FE01F0CDF903B4FFF7F2FF50
:1002B00003BC0AF095F90000EFF308807047EFF3F4
:1002C0000980704768467047224B19680868B0E893
:1002D000F00F80F30988BFF36F8F4FF0000080F3B9
:1002E00011884EF00D0E70470000000006480068AF
:1002F000006880F3088862B661B6BFF34F8FBFF322
:100300006F8F00DF00BF00BF08ED00E0EFF3098052
:10031000BFF36F8F0F4B1A6820E9F00F106008B51C
:100320004FF0500080F31188BFF34F8FBFF36F8FF2
:100330000EF070F84FF0000080F31188BDE808401F
:1003400019680868B0E8F00F80F30988BFF36F8F71
:10035000704700BFC0000020EFF305807047000029
:10036000704669460AF034FCFFF7FEFF09488047F3
:1003700009480047FEE7FEE7FEE7FEE7FEE7FEE787
:10038000FEE7FEE7FEE7FEE704480549054A064B9F
:1003900070470000117900083101000830A10020E9
:1003A00030E1002030C1002030C100207047000043
:1003B0001CB50C46064B7B4469460090204600F075
:1003C000B4FB04460020694600F0C2FB20461CBD79
:1003D000970700000FB4044910B503AA029800F073
:1003E000D3FB10BC5DF814FB000000200FB41CB55B
:1003F000084B06AA7B4469460090059800F095FBDF
:1004000004460020694600F0A3FB20461CBC5DF8B2
:1004100014FB00005907000070B5044685690068A8
:10042000C10601D5302600E02026C00707D070BDE8
:10043000D4E9012130469047206A401C20626D1E9D
:10044000F6D570BD70B5044685690078C00707D140
:1004500070BDD4E9012120209047206A401C206211
:100460006D1EF6D570BD09684A0501D540B27047CA
:10047000C905FCD500B2704709684A0501D5C0B26C
:100480007047C905FCD580B2704770B50C4605466B
:10049000012A05D02878800600D5EA69002302E009
:1004A000012305E05B1C934202D2E05C0028F9D1F5
:1004B000A869E618C01AA861286A18442862284664
:1004C000FFF7AAFF04E0D5E9012114F8010B9047DA
:1004D000B442F8D32846FFF7B5FF70BD2DE9F041CF
:1004E0000646002410687529314616A510D0FFF77E
:1004F000BAFF002802DA404213A507E031688A07F4
:1005000001D512A502E0490704D511A5012401E097
:10051000FFF7B2FF00210A2206F1240709E0B0FB31
:10052000F2FCB0FBF2F302FB1C00303078541846AA
:10053000491C0028F3D123462A463046BDE8F04145
:1005400000F095BA000000002D0000002B00000014
:100550002000000011680268006A530501D5087088
:100560000AE0D30501D5088006E0130603D5C217BB
:10057000C1E9000200E00860012070472DE9FF5F3B
:1005800015468A460446DFF8AC80F8440027D8E9CF
:1005900000103E46CDE9001010E03AF816106A4609
:1005A00002A800F057FB411C07D02178890603D52B
:1005B000E269391891420DD80744761C20788006EC
:1005C00002D5E069B84205DDAE42E6DB3AF8160036
:1005D0000028E2D1A069C01BA0612046FFF71CFFE4
:1005E000D8E90010CDE90010002017E03AF8181003
:1005F0006A4602A800F02EFBB0F1FF3F81460BD007
:1006000000250DF1080B05E0D4E901211BF80500D8
:1006100090476D1C4D45F7D308F10100B04280466C
:10062000E4DB206A384420622046FFF70BFFBDE878
:10063000FF9F00008A9F030030B4002100F12404D2
:1006400008E002F00705D208303542EA4372DB08C1
:100650006554491C52EA0305F3D10468002310A233
:10066000250707D5A40600D421B1C46901230DA232
:10067000641EC46130BC00F0FAB910B504462146CE
:100680001068FFF7F9FE02462046BDE8104000233F
:10069000D2E7D21D22F00701D1E90023CCE7000008
:1006A0000000000030000000F0B40D46018809058C
:1006B00002D5214C7C4402E01F4C7C440E340021C6
:1006C00000F1240608E002F00F071209E75D42EA94
:1006D00003721B097754491C52EA0307F3D10278CD
:1006E0000023120704D5702D06D009B1022311345E
:1006F0002246F0BC00F0BBB901231034F8E770B516
:1007000004460D4621461068FFF7B6FE024629460C
:100710002046BDE870400023C6E7D21D22F0070343
:10072000D3E90023C0E70368126843F020030360A5
:100730000823C3610023B7E7689E03002DE9F05F3B
:10074000894604464FF0000ADFF874B1FB44C0F854
:1007500020A02046E1688847002874D0252806D0CC
:10076000D4E901219047206A401C2062F1E700266D
:100770005F462046E16888472028054607DB312D83
:1007800005D2781910F8200C08B10643F1E7B0073C
:1007900001D526F00406C4F81CA00027C4F818A050
:1007A0002A2D09D0284609F014FF38B304EB870836
:1007B000303DC8F8185019E059F8041B204604EBE6
:1007C00087029161E1688847012F054618D1E069E9
:1007D000002820DA26F020061DE0D8F8180000EBEB
:1007E000800005EB40003038C8F818002046E1686A
:1007F0008847054609F0EDFE0028EED1012F0AD00A
:100800002E2D08D12046E16888477F1C0546022F1F
:1008100046F02006C4DBA069002803DA404246F017
:100820000106A061F00701D026F010066C2D0BD058
:10083000682D09D04C2D39D06A2D35D0742D35D086
:100840007A2D33D016E038E0E1682F4620468847FD
:10085000B842054609D16C2F26D04FF48060E1687C
:10086000064320468847054604E06C2F1AD04FF413
:10087000807006430DB3A5F14100192802D8203538
:1008800046F400664A462946204626604E46FFF753
:10089000A9FC80B101280BD0F61D26F0070000F15D
:1008A000080956E74020E4E78020D8E70020D6E793
:1008B00006F104094DE7284652E7206ABDE8F09F9B
:1008C000F89D0300032A40F2308010F0030C00F082
:1008D000158011F8013BBCF1020F624498BF11F87A
:1008E00001CB00F8013B38BF11F8013BA2F1040233
:1008F00098BF00F801CB38BF00F8013B11F00303AB
:1009000000F02580083AC0F0088051F8043B083A0E
:1009100051F804CBA0E80810F5E7121D5CBF51F8B0
:10092000043B40F8043BAFF30080D20724BF11F82A
:10093000013B11F801CB48BF11F8012B24BF00F88F
:10094000013B00F801CB48BF00F8012B704710B500
:10095000203AC0F00B80B1E81850203AA0E81850B7
:10096000B1E81850A0E81850BFF4F5AF5FEA027C78
:1009700024BFB1E81850A0E8185044BF18C918C0E7
:10098000BDE810405FEA827C24BF51F8043B40F888
:10099000043B08BF7047D20728BF31F8023B48BF6D
:1009A00011F8012B28BF20F8023B48BF00F8012BAB
:1009B000704702F0FF0343EA032242EA024200F0DA
:1009C0006BB94FF0000200B51346944696462039A5
:1009D00022BFA0E80C50A0E80C50B1F12001BFF4F8
:1009E000F7AF090728BFA0E80C5048BF0CC05DF85E
:1009F00004EB890028BF40F8042B08BF704748BFAC
:100A000020F8022B11F0804F18BF00F8012B70471F
:100A100010B5044610F0030F08BF11F0030F40F0AB
:100A200015804FF0013E121FC0F20E8051F8043BBA
:100A3000A3EB0E0C2CEA030C1CEACE1C08BF40F8FA
:100A4000043BF0D0A1F1040102F10402521E08DBC4
:100A500011F8013B002B00F8013BF7D1114600F0E3
:100A600019F9204610BD70477047704770472DE94F
:100A7000F0470D4699469246044600F12408016865
:100A8000880604D5E06921F01001216000E0012012
:100A9000A84201DD471B00E00027A1697A1902EB9B
:100AA0000900081AA0612078C00602D42046FFF78A
:100AB000B3FC002608E0D4E901211AF806009047AB
:100AC000206A401C761C20624E45F4DB2078C0066C
:100AD0000AD52046FFF7A0FC06E0D4E9012130202A
:100AE0009047206A401C2062381EA7F10107F4DC01
:100AF00007E0D4E9012118F805009047206A401C5E
:100B00002062281EA5F10105F3DC2046FFF79AFCC0
:100B10002078000602D50220BDE8F0870120FBE71F
:100B200001694A1C02610878704700B58FB0CDE9B1
:100B300001310021059105497944CDE903101146A1
:100B40006846FFF7FBFD0FB000BD0000E5FFFFFFAB
:100B50000A6802F8010B0A60704710B5436913B1C7
:100B6000AFF3008001E0FFF790FC012010BD127888
:100B700000F124010A7000224A700122EDE7116899
:100B80004FF0FF32E9E70000074B70B50D467B449C
:100B9000FFF7CBFF044628460BF056FD10B14FF08F
:100BA000FF3070BD204670BDCFC0000010B5436956
:100BB00013B1AFF3008001E0FFF7E0FC012010BDAE
:100BC000128800F1240182840022C2840122EDE710
:100BD00011684FF0FF32E9E72DE9F0418046D21D60
:100BE00022F007020025D2E90002F52915A614D04B
:100BF000011E72F1000106DA0023D0EB030063EB63
:100C0000020211A608E0D8F800108B0701D50FA644
:100C100002E0490701D50EA601251146002408F17E
:100C2000240704E000F060F830323A55641C50EAC2
:100C30000102F7D12B46324621464046BDE8F0413D
:100C4000FFF715BF000000002D0000002B00000082
:100C50002000000070B516460C46054600F03CF832
:100C6000036893F80101012806D0FF2C0FD8185D06
:100C700068B101202C7070BDD3F8070132462146BF
:100C800003F2071303442846BDE8704018474FF0AD
:100C9000FF3070BD4FF000020429C0F0128010F048
:100CA000030C3FF490AECCF1040CBCF1020F18BF62
:100CB00000F8012BA8BF20F8022BA1EB0C01FFF7D5
:100CC00082BE5FEAC17C24BF00F8012B00F8012B33
:100CD00048BF00F8012B704710B500F0FDFB001D68
:100CE00010BD00BF25E9000030B5B0F10A024FEA9F
:100CF000900E71F100034EEA817EB0EB0E0061EBC5
:100D000091014FEA101E4EEA017E10EB0E0041EBFE
:100D100011114FEA102E4EEA016E10EB0E0041EB5E
:100D200011214FEA104E4EEA014E10EB0E0041EB3E
:100D30001141401841F100014FEAD00040EA4170F2
:100D40004FEAD10110EB80054FEA810444EA907428
:100D500044EB01046D1944EB0404521BA3414FF012
:100D6000000348BF0A3200D530BD401C41F10001EC
:100D700030BD70472DE9FF4F0C461E464FF0FF3740
:100D80008BB0D2E90001DDF860800A908A46C1F399
:100D90000A5505B93D46002108464FF00000BAF15A
:100DA000000F00F4400005DA00EB80004FF4400132
:100DB00001EA50004FEA9059B9F1010F00DDB94640
:100DC0000A9850EA4A000ED044F61050A5F2FF35BA
:100DD00045432F14B8F1000F1ED07542291E1EDDA9
:100DE000C9F100021CE0B8F1010F4FF0000001D082
:100DF000302103E0F24305E02154401CB042FBDB0C
:100E000030460022002121540B99C1F80880C1E925
:100E100000200FB0BDE8F08FBD1B6D1CDEE74A4619
:100E200000DA694206A800F09BFB06AB93E80700D6
:100E300003AB83E8070050460A9900F051FC8DE8A7
:100E40000700A0F500501F3800900398002D0ADD20
:100E500042F21F014A460844002303A90390684652
:100E600000F0BAFE09E0A0F500504A461F38002302
:100E700003A90390684600F0C4FE8DE80700000453
:100E8000000C03D04FF0FF30410800E01046B8F1ED
:100E9000000F03D00022009215461EE0751E05D4F7
:100EA000FFF722FF303262556D1EF9D5B34601229D
:100EB000084302D000227F1C04E02078302801D1B2
:100EC00000227F1E002A099784D01DE0112D07DA29
:100ED000FFF70AFF303262556D1C50EA0102F5D16E
:100EE000084302D00098C8B10EE00021681E05E05A
:100EF000235C625C63542254401E491C8142F7DB30
:100F0000AB46A81B401E0990002004F80B000B986C
:100F1000099AC0F80880C0E9002B7AE711264FF043
:100F2000000857E72DE9F04F88460446D21D22F00D
:100F3000070191B0D1E90001CDE90A0109F016FBE2
:100F400002460B98C00F01D02D2007E020688107D2
:100F500001D52B2002E0202101EAC000032A0990DC
:100F600001D0072A05DB03464146204600F0B8FAC7
:100F70000BE12078800601D5E06900E00620B8F199
:100F8000650F814606D0B8F1660F18D0B8F1670F2B
:100F900070D131E00020B9F1110F009001DB112375
:100FA00001E009F101030AAA01A90CA8FFF7E2FE7A
:100FB000DDE90C70002609F10105834647E00120B8
:100FC0004B4600904FF000470AAA01A90CA8FFF772
:100FD000D1FEDDE90DB00C995D46002610B909F18E
:100FE00001000D18B9EB050003D4C0F1FF3609F17B
:100FF0000105A5EB09002BE0B9F1010F01DA4FF073
:1010000001090020B9F1110F0090484601DD1123BC
:1010100000E003460AAA01A90CA8FFF7ABFEDDE930
:101020000C704D4600268346207800070AD4AB4555
:1010300000DA5D4601A8012D04DD411911F8011CFB
:10104000302907D04F4502DA17F1040F04DA0120E6
:1010500082460FE06D1EEEE7002F02DCED1B3E44E2
:1010600003E0781CA84200DD7D1CB81B00F1010ADA
:101070004FF000472078000703D4AA4501DB4FF06A
:10108000FF3A0021B7F1004F0DF143088DF84310EE
:1010900024D002202B23002F01DA7F422D230A21A6
:1010A000021EA0F1010000DC5FB197FBF1FC97FB91
:1010B000F1F201FB1C7C17460CF1300C08F801CD55
:1010C000EEE7A8F1010003702188090501D545214B
:1010D00000E06521A0F1010800F8011C09980FA9A2
:1010E000A1EB0807FF1D00B10120411901EBEA70D7
:1010F000A1693844081A401EA0612078C00602D4B5
:101100002046FFF789F9099828B1D4E901219047D1
:10111000206A401C20622078C00622D52046FFF7B6
:101120007BF91EE0002E04DBB34502DD01A8805DE3
:1011300000E03020D4E901219047206A401C206261
:10114000761CAAF101005FEA000A0AD100F0C4F996
:10115000C0680168405CD4E901219047206A401CC6
:101160002062281EA5F10105DCDC07E0D4E901219D
:1011700018F8010B9047206A401C2062381EA7F126
:101180000107F3DC2046FFF75DF9032011B041E6CB
:101190002DE9F04F04460D46D21D22F0070089B01C
:1011A000D0E900974846394609F0E0F90246F80FC1
:1011B00001D02D2307E02068810701D52B2302E011
:1011C000202101EAC0038DF820300BB1012000E09E
:1011D0000020032A824601D0072A04DB2946204644
:1011E00000F07EF93FE12078800601D40D2500E073
:1011F000E569C7F30A560D2D49DA00214FEA175B5E
:1012000008464FF00000002F00F4400007DA00EB22
:1012100080004FF4400100EBD07001EA60008115BE
:10122000012901DD4FF0FF3100224FEA850CBCF1AE
:10123000180F06D31346ACF118004FF08052C2408D
:1012400003E04FF4801323FA0CF30CF10C0CBCF107
:10125000200F04D3ACF1200C09FA0CF001E007FADE
:101260000CF000294FF0004801DD18B90FE00ED155
:1012700040450CD319EB02095F4121B9404502D129
:101280009F4329EA0209BBEB175F00D0761C208838
:10129000000502D57B48784402E07A487844193842
:1012A00008AA302302F80A30037C0AF10101002E5B
:1012B0000AF1020A53546A4602DC4FF0300101E0A1
:1012C0004FF031014FF001088DF8001002D0A6F266
:1012D000FF3603E059EA470100D06B4E002D02DCD7
:1012E0002178090704D54FF002082E218DF801104E
:1012F000C44600210BE0C7F303433F01C35C491C14
:101300006D1E02F80830052908F1010801DA002DE8
:10131000F1DC00210CE000EB1973491C1B786D1EF9
:10132000082902F808304FEA091908F1010801DA22
:10133000002DF0DC21688B0602D516E0A8F101082B
:10134000E04505DD02EB080313F8013C302BF5D036
:10135000B8F1000F09DD02EB080313F8013C2E2B56
:1013600003D1090701D4A8F10108002D05DD3E21B4
:1013700002F808106D1E08F10108407C002E02F8EA
:10138000080008F1010804DA2D20764202F808006E
:1013900002E02B2002F808000A214FF47A708642FE
:1013A00008F101080BDB96FBF0F3303302F808304C
:1013B00096FBF0F308F1010800FB136601E0642ED0
:1013C0000CDB642096FBF0F3303302F8083096FB18
:1013D000F0F308F1010800FB136601E00A2E06DBBA
:1013E00096FBF1F0303002F8080008F1010896FB96
:1013F000F1F001FB1060303002F80800A16908F13B
:10140000010808EB050202EB0A00081AA061207827
:10141000C00602D42046FEF7FFFF216A08AE01EBAA
:101420000A00206204E0D4E9012116F8010B90477C
:10143000BAF1010AF7D22078C00602D52046FEF79D
:10144000EBFF6E4609E016F8010B3E280FD0D4E9F9
:1014500001219047206A401C2062B8F10108F2D2B5
:101460002046FEF7EFFF09B00320BDE8F08F206AA9
:101470002844206203E0D4E90121302090476D1E0A
:10148000EBD3F8E7D292030002FCFFFF754600F0B1
:10149000E3F8AE4605006946534620F0070085464E
:1014A00018B020B5FEF770FFBDE820404FF00006F1
:1014B0004FF000074FF000084FF0000B21F007013C
:1014C000AC46ACE8C009ACE8C009ACE8C009ACE87F
:1014D000C0098D467047000000487047F0A000200A
:1014E0002DE9F0411F46044603260168072A01F44E
:1014F000006004DB08B116A505E016A503E008B1FD
:1015000015A500E015A521F010002060A069C01EFF
:10151000A0610FB1401EA0612046FEF77DFF4FB1D4
:10152000D4E9012138469047206A401C2062C01C43
:10153000206206E0206AFAE7D4E9012115F8010BE0
:101540009047761EF8D22046FEF77CFFBDE8F0817A
:101550004E414E006E616E00494E4600696E660057
:101560002DE9F047814616468AB0354878440DC8C3
:101570008DE80D0032487844801C03AC0DC884E827
:101580000D0041F69B300844372190FBF1F290FBAF
:10159000F1F5A5F1800501FB12041B3C02D5644264
:1015A000012000E00020DFF898A080460027FA44E0
:1015B000AAF1BE0A0EE0E0070AD03246684607EB01
:1015C000470101230AEB810100F01BFB8DE80700B6
:1015D00064107F1C002CEED1194F7F44AE3F19E000
:1015E000E80715D007EB04100DF1180A90E80E007B
:1015F0008AE80E00C068F04201D19819089032467E
:10160000012306A903A800F0FCFA03AB83E8070056
:101610006D10641C002DE3D14FF001033246694682
:10162000B8F1000F03A802D000F0D6FA01E000F0F4
:10163000E8FAC9E90001C9F808200AB0BDE8F08756
:101640008C90030010B50446AFF300802046BDE83F
:101650001040FEF72ABE000000487047D0A00020CE
:101660004FF0013C50F8042B51F8043B9A4221D131
:10167000A2EB0C03934313EACC1317D150F8042BBD
:1016800051F8043B9A4215D1A2EB0C03934313EAA1
:10169000CC130BD150F8042B51F8043B9A4209D1DA
:1016A000A2EB0C03934313EACC13DBD04FF0000002
:1016B000704700BFD01A01BAB1FA81F101F01801E8
:1016C00022FA01F0CB40C1F12001DBB2C0B2C01A56
:1016D0002CFA01F3D11A914311EAC311E6D17047F4
:1016E0005FEA400C08BF91F0000F4FEA8C234FEAED
:1016F000C12243EA51514FEA1C5018BF00F5F04097
:101700004FEA300018BF41F000415FEA6C5C00F026
:101710002980BCF1FF3F08BF40F080407047130CA8
:1017200006BF12044FF0100C4FF0000C130E04BF54
:1017300012020CF1080C130F04BF12010CF1040C7F
:10174000930F04BF92000CF1020CD30F04BF5200A0
:101750000CF1010C11464FF00002A0F11F00A0EBAC
:101760000C00704711F0004F08BF704731F0004186
:101770003FF4D5AF0B0C06BF09044FF0100C4FF02F
:10178000000C0B0E04BF09020CF1080C0B0F04BF78
:1017900009010CF1040C8B0F04BF89000CF1020C41
:1017A000CB0F04BF49000CF1010CCCF12003A0EBDE
:1017B0000C0022FA03F302FA0CF241EA030100F1F1
:1017C0000100704720F07F4C80EA030023F07F4740
:1017D000ACEB070303F57C5300F0004003F1FF037B
:1017E0002DE980494FEA154B09B44FEA144325EA25
:1017F0000B4E24EA03480FF2042606EB1327490890
:101800003E785FEA320203FB0667C7F5000707FB75
:1018100006F64FEA54374FEAD64606F1020607FBB2
:10182000066CCCF1005C4FEA1C472CEA074C07FB26
:1018300006F40CFB06F504EB15464FEA961634BF8A
:1018400000204FF000404FEAD13706FB07FC4FEA7B
:101850001C4C0CFB0BF7D21B03FB0CF761EB0701D5
:101860000CFB0EF7B0EB074072EB17420CFB08F7CE
:1018700034BFA2EB0742B2EB074261EB17414FEADC
:101880000C444FEA910706FB07FC4FEA1C4C0CFB8B
:101890000BF7B0EBC74072EB573203FB0CF734BFCA
:1018A000A2EBC742B2EBC74261EB57310CFB0EF71C
:1018B000B0EBC70072EB57720CFB08F734BFA2EB1A
:1018C000C702B2EBC70261EB5771039F4FEA816118
:1018D00041EA921104EBCC044FEAD1374FEA82621D
:1018E00006FB07FC42EA90124FEA80604FEA1C4C6C
:1018F0000CFB0BF7D21B03FB0CF761EB07010CFB96
:101900000EF7B0EB074072EB17420CFB08F734BF41
:10191000A2EB0742B2EB074261EB17414FEA8C554D
:101920004FEA910704EB9C2406FB07FC4FEA1C4C92
:101930000CFB0BF7B0EBC74072EB573203FB0CF715
:1019400034BFA2EBC742B2EBC74261EB57310CFB8D
:101950000EF7B0EBC70072EB57720CFB08F734BF01
:10196000A2EBC702B2EBC70261EB577115EB4C2536
:101970004FEA816141EA92114FEA82624FEAD13720
:1019800042EA901206FB07FC44F100044FEA806033
:101990004FEA1C4C0CFB0BF7D21B03FB0CF761EB63
:1019A00007010CFB0EF7B0EB074072EB17420CFB84
:1019B00008F734BFA2EB0742B2EB074261EB1741D5
:1019C00015EB1C154FEA813141EA92414FEA823210
:1019D00042EA90424FEA80304FEA0C7644F100042C
:1019E00048EA03434EEA0B484FF0000EB2EB080CF6
:1019F00071EB030724BF624639464EEB0E0E4FF0E3
:101A0000000B0018524149414BEB0B0BB2EB080C99
:101A100071EB03077BF1000B24BF624639464EEBA6
:101A20000E0E4FF0000B0018524149414BEB0B0BCF
:101A3000B2EB080C71EB03077BF1000B24BF62468D
:101A400039464EEB0E0E51EA020718BF46F001066A
:101A500016EB0E7655F1000254F1000103D5BDE8F6
:101A60008901BDE80088BDE88901BDE80048B619D4
:101A7000524141EB0101A3F10103704780807F7E59
:101A80007D7C7B7A797877767675747372717170F4
:101A90006F6E6E6D6C6C6B6A6A69686867666665A6
:101AA0006464636362616160605F5F5E5E5D5D5C34
:101AB0005C5B5B5A5A5959585857575656555555A5
:101AC0005454535352525251515050504F4F4F4E05
:101AD0004E4D4D4D4C4C4C4B4B4B4A4A4A49494953
:101AE0004848484747474746464645454544444495
:101AF000444343434342424242414141002B9C46BE
:101B000030D477002BD01CB54FEA370703B44FF021
:101B100010004FF01001BAF1000F06D0BCF1000F19
:101B2000DCBF40F0080040F008014FF000000FBC9F
:101B3000BDE810400BF1010BBBF1010F08BF5FEADC
:101B4000170722BF12F1010211F101014FF000410C
:101B500043F1000300F0004043EA00007047F9D36E
:101B60005708D0E746EA064613F1400F4FEA1646FB
:101B70001FDD13F1200FDFBF16430A46002120337B
:101B80005B42BED0C3F1200746EA064602FA07F7D9
:101B90004FEA164646EA0706C3F1200722FA03F287
:101BA00001FA07F721FA03F14FF0000342EA0702B6
:101BB000A7E746EA020646EA06464FEA164646EA1E
:101BC0000106BCBF46EA0646360C4FF000034FF054
:101BD00000024FF0000194E72DE9804C9A469346AD
:101BE00070B491E8380007C831EA400C48BF34EAC5
:101BF000430C03D5FFF7E6FDFFF780FFF0BCBDE81F
:101C0000008C2DE9804C9A46934670B491E83800D8
:101C100007C810F0804F08BF13F0804F03D100F0C9
:101C200005F8FFF76BFFF0BCBDE8008C20F07F47A4
:101C300080EA030023F07F4C07EB0C03A3F57C53F1
:101C400000F00040A3F1FE0392F0000F00F0B3801B
:101C500095F0000F00F077802DE901494FEA11401F
:101C60004FEA144621EA004800FB06FC24EA064736
:101C700008FB06F607FB08F800FB07F718EB064819
:101C80004CEB164C4FEA124B18EB07484FEA15463F
:101C90004CEB174022EA0B4E0BFB06FC25EA0647ED
:101CA0000EFB06F607FB0EFE0BFB07F71EEB064EC0
:101CB0004CEB164C4FF000061EEB074E4CEB174B4F
:101CC00018EB0B0840F1000018EB0E0B58EB000866
:101CD00040F100008F1A4FF000013CBFC943661B62
:101CE00014BFB5EB040C00213CBFC943F61B4FEAFF
:101CF00017444EEA8E0E27EA04454FEA1C4704FBC0
:101D000007622CEA074C05FB07F70CFB05F604FB02
:101D10000CFC16EB074642EB174216EB0C4642EB67
:101D20001C421BEB060658EB0202414146EA9E06A6
:101D300001D5BDE80189B619524141EB0101A3F17A
:101D40000103BDE801894FEA14454FEA114724EA2F
:101D5000054621EA074C05FB07F406FB07F70CFBD9
:101D600006F105FB0CFC11EB074144EB17444FEA6D
:101D7000124711EB0C4144EB1C4422EA074C05FBD3
:101D800007F206FB07F70CFB06F605FB0CFC16EB4F
:101D9000074642EB174216EB0C4642EB1C456A180D
:101DA00054F1000148BF7047B619524141EB01019F
:101DB000A3F10103704795F0000F37D04FEA1142AD
:101DC0004FEA144721EA024624EA074C02FB07F1D6
:101DD00006FB07F70CFB06F402FB0CFC14EB0744B4
:101DE00041EB17414FEA154714EB0C4441EB1C4102
:101DF00025EA074C02FB07F506FB07F70CFB06F686
:101E000002FB0CFC16EB074645EB174516EB0C46A0
:101E100045EB1C42121951F1000148BF7047B61939
:101E2000524141EB0101A3F1010370474FEA144510
:101E30004FEA114724EA054621EA074C05FB07F162
:101E400006FB07F70CFB06F24FF0000605FB0CFC47
:101E500012EB074241EB174112EB0C4251EB1C41D4
:101E600048BF7047921841EB0101A3F1010370478D
:101E700010B501240421034801F076F800B10024D4
:101E8000204610BD0018014010B504462146024806
:101E900002F01CFE10BD0000FC1A002010B5044822
:101EA00002F027FE042801D0012010BD0020FCE72D
:101EB000FC1A002010B5002400F014F8012801D00D
:101EC000012010BD064802F02AFE044634B94FF442
:101ED0000061034802F0B2FC00B101242046F0E7A3
:101EE000FC1A002008B501200090FFF7C1FF08B9D7
:101EF000002000909DF8000008BD00002DE9F84387
:101F000004460D4616461F464FF0000833462A4643
:101F100021460548009702F0CBFE08B14FF00108BA
:101F20004046BDE8F8830000FC1A00202DE9F84384
:101F300004460D4616461F464FF0000833462A4613
:101F400021460548009702F0FFFF08B14FF0010855
:101F50004046BDE8F8830000FC1A002000BFFEE701
:101F60000C480D4908600D4848600D4888600D48D0
:101F7000C860012008823220488288820020C882FE
:101F800008838883088448848884C884488381F8C7
:101F90002800704700640040780C0020A40C00204A
:101FA000C40C0020CC13002000B58BB0002006909C
:101FB0000790012008900020019002900390049067
:101FC0000590012009900E200A9001A90A4800F00E
:101FD000ECF820B14FF4A27108A000F05FF80221E4
:101FE000054800F0CDF820B14FF4A47103A000F033
:101FF00055F80BB000BD0000D41A00202E2E5C4214
:102000005350463130335C7372635C6273705F634C
:10201000616E5F6669666F3130332E6300000000C9
:1020200010B504460CB9124810BD012C01D1002096
:10203000FAE7022C01D10020F6E7032C01D10020A1
:10204000F2E7042C01D10020EEE7052C01D100209D
:10205000EAE7062C01D10020E6E7072C01D1002099
:10206000E2E7EB2103A000F019F80020DCE7000014
:10207000180200202E2E5C425350463130335C73E0
:1020800072635C6273705F756172745F6669666FBC
:102090003130332E630000007047000070B50546F4
:1020A0000C462246294603A0FEF794F904B970BDF8
:1020B00000BFFEE757726F6E6720706172616D65D9
:1020C000746572732076616C75653A2066696C651B
:1020D000202573206F6E206C696E652025640D0AC3
:1020E0000000000030B504460D4600222946204677
:1020F00000F002F830BD0000F0B5034601250024D1
:102100001148407A01281CDC00200F4E767A0E4FD1
:10211000B8553846467A001D40F82630001F467AEA
:10212000083082553E46707A461C7E72044604F1A1
:10213000300008703A2048702F2088700020C87046
:1021400000252846F0BD00001C2A002070B50A4872
:102150000468001D0568001D0668344454B1082257
:102160000649204603F02EFB04220449103128467C
:1021700003F028FB70BD0000E8F7FF1F5A000020A5
:1021800010B5024692F82030012B01D0022B06D167
:1021900010684069084314686061002010BD506AEF
:1021A00040F4802050620120F8E7F0B504460A466A
:1021B000216894F82050012D01D0022D74D1D1F85E
:1021C000000240F00100C1F80002107D00F01F067F
:1021D000012000FA06F3D1F81C029843C1F81C0252
:1021E000D069C8B9D1F80C029843C1F80C029088A4
:1021F00080B2968940EA064601F51070576940F8AA
:102200003760108880B2168940EA064601F51070E2
:10221000576900EBC7004660D069012819D1D1F891
:102220000C021843C1F80C02908880B2168840EA6C
:10223000064601F51070576940F83760908980B202
:10224000168940EA064601F51070576900EBC70091
:102250004660906928B9D1F804029843C1F8040295
:1022600004E0D1F804021843C1F80402106928B947
:10227000D1F814029843C1F8140204E0D1F8140212
:102280001843C1F81402106A012804D1D1F81C02C5
:102290001843C1F81C02D1F8000220F00100C1F877
:1022A00000020020F0BDFFE7606A40F48020606219
:1022B0000120F7E710B504460CB9012010BD2046F7
:1022C00000F023FB204600F0ABFA2068006840F4E1
:1022D0000040216808600020606284F8200000BF90
:1022E000ECE7704770B5044694F82050012D01D0FA
:1022F000022D7DD151B92068C06800F0030080B97B
:10230000606A40F400106062012070BD20680069BE
:1023100000F0030028B9606A40F4001060620120F8
:10232000F3E7206800F5D87000EB0110006800F0BA
:1023300004009060906840B9206800F5D87000EB08
:1023400001100068400D106007E0206800F5D870AB
:1023500000EB01100068C0085060206800F5D870DC
:1023600000EB0110006800F00200D060206800F56A
:10237000D87000EB0110406800F00F001061206879
:1023800000F5D87000EB0110406800F47F40000AAF
:102390009061206800F5D87000EB01104068000CD7
:1023A0005061206800F5D87000EB0110806818704B
:1023B000206800F5D87000EB0110806800F47F40C1
:1023C000000A5870206800F5D87000EB0110806892
:1023D00000F47F00000C9870206800F5D87000EBC6
:1023E00001108068000ED870206800F5D87000E0F9
:1023F0002FE000EB0110C0681871206800F5D8705C
:1024000000EB0110C06800F47F40000A587120689A
:1024100000F5D87000EB0110C06800F47F00000CDC
:102420009871206800F5D87000EB0110C068000EAC
:10243000D87131B92068C06840F020002668F0608B
:1024400005E02068006940F0200026683061002027
:102450005BE7606A40F480206062012055E72DE967
:10246000F05F04460025206846692068D0F8049093
:10247000206887682068D0F80CA02068D0F810B0D9
:102480002068D0F8188006F00100002855D007F029
:102490000100C0B101202168886007F0020018B176
:1024A000204600F069FA0EE007F0040010B145F490
:1024B000006508E007F0080010B145F4805502E01F
:1024C000204600F057FA07F48070C8B14FF48070CE
:1024D0002168886007F4007018B1204600F0E1FA26
:1024E0000EE007F4806010B145F4005508E007F4F1
:1024F000006010B145F4804502E0204600F0D0FABB
:1025000007F48030C8B14FF480302168886007F448
:10251000003018B1204600F0C6FA0EE007F4802023
:1025200010B145F4004508E007F4002010B145F46F
:10253000803502E0204600F0B5FA06F0080038B118
:102540000AF0100020B145F4007510202168C86021
:1025500006F0040040B10AF0080028B10820216804
:10256000C860204600F0CCF906F0020038B12068BF
:10257000C06800F0030010B1204600F0C2F906F078
:10258000400038B10BF0100020B145F480651020F8
:102590002168086106F0200040B10BF0080028B166
:1025A000082021680861204600F0ACF906F0100010
:1025B00038B12068006900F0030010B1204600F037
:1025C000A2F906F4003040B109F0100028B1102043
:1025D00021684860204600F097F906F4803040B149
:1025E00009F0080028B1082021684860204600F062
:1025F0005BFA06F4004088B309F0040078B306F4EF
:10260000807020B108F0010008B145F0010506F422
:10261000007020B108F0020008B145F0020506F490
:10262000806020B108F0040008B145F0040506F40C
:102630000060A0B108F0700088B108F07000402878
:1026400017D006DC10280BD020280CD0302819D148
:102650000CE0502810D0602814D110E01DE019E0E3
:1026600045F008050FE045F010050CE045F02005A9
:1026700009E045F0400506E045F0800503E045F43B
:10268000807500E000BF00BF2068806920F0700006
:10269000216888610420216848602DB1606A284360
:1026A00060622046FFF71DFEBDE8F09F70B504464E
:1026B0000CB9012070BD94F8200010B9204600F03C
:1026C000C7F82068006840F001002168086000F049
:1026D00059FC05460DE000F055FC401B0A2808D9BE
:1026E000606A40F400306062052084F82000012018
:1026F000E0E72068406800F001000028EBD0206887
:10270000006820F002002168086000F03BFC0546EC
:102710000DE000F037FC401B0A2808D9606A40F43D
:1027200000306062052084F820000120C2E72068A4
:10273000406800F002000028EBD1207E012806D17D
:102740002068006840F080002168086005E020688B
:10275000006820F0800021680860607E012806D1B2
:102760002068006840F040002168086005E02068AB
:10277000006820F0400021680860A07E012806D192
:102780002068006840F020002168086005E02068AB
:10279000006820F0200021680860E07E012806D152
:1027A0002068006820F010002168086005E02068BB
:1027B000006840F0100021680860207F012806D1E1
:1027C0002068006840F008002168086005E0206883
:1027D000006820F0080021680860607F012806D1A9
:1027E0002068006840F004002168086005E0206867
:1027F000006820F0040021680860D4E90201084361
:1028000021690843616908436168491E08432168DA
:10281000C86100206062012084F82000002049E7A0
:1028200010B504460749206888420AD10648C069A5
:1028300020F000700449C8614FF44071034800F073
:1028400049F910BD0064004000100240000C014036
:1028500010B586B0044600200290039004900590C5
:1028600023492068884241D100BF2248C06940F016
:1028700000702049C8610846C06900F000700190EE
:1028800000BF00BF00BF0846806940F008008861B3
:102890000846806900F00800019000BF00BF88155D
:1028A000029000200390049002A9134800F0BCF9A4
:1028B0004FF400700290022003900320059002A9BB
:1028C0000D4800F0B1F900BF0C49486820F4C04041
:1028D00040F0E06040F48040486000BF00220521E5
:1028E000142000F0F9FB142000F0E6FB06B010BD48
:1028F0000064004000100240000C01400000014054
:102900007047704770477047704770B5044694F839
:102910002000022828D12068006840F001002168CA
:10292000086000F02FFB05460DE000F02BFB401B7C
:102930000A2808D9606A40F400306062052084F8F3
:102940002000012070BD2068406800F001000028D0
:10295000EBD02068006820F00200216808600120A8
:1029600084F820000020EDE7606A40F48010606287
:102970000120E7E77047000010B504463D4890F895
:102980002800A8BB3B4880683A49898B01EBC1010C
:1029900000EB810000F11C03364880683549898BC3
:1029A00001EBC10100EB810200212046FFF79AFCF8
:1029B0003048808B401C80B22E498883498A8842E7
:1029C0000ADB00202B498883012081F8280001219F
:1029D000294800680AF062FC2648808C2549498A0B
:1029E000884245DA2348808C401C224988843FE095
:1029F000FFE7204890F82800012834D11D48C0681E
:102A00001C49C98B01EBC10100EB810000F11C03E3
:102A10001848C0681749C98B01EBC10100EB81025E
:102A200000212046FFF75EFC1248C08B401C80B29C
:102A30001049C883898A884209DB00200D49C88370
:102A400081F8280001210C4800680AF027FC094899
:102A5000C08C0849898A88420ADA0648C08C401C22
:102A60000449C88404E04FF4D17104A0FFF716FBB9
:102A700010BD0000780C0020140000202E2E5C42B7
:102A80005350463130335C7372635C6273705F63C2
:102A9000616E5F6669666F3130332E63000000003F
:102AA00070477047704770477047000070B5044624
:102AB00000F068FA06462546681C10B10448007804
:102AC000054400BF00F05EFA801BA842FAD370BD37
:102AD000B40000202DE9F04102460B4600208BE0B7
:102AE0000127874007EA030100297DD0464F4FEABE
:102AF000900C57F82C4087074FEA177C0F2707FAEE
:102B00000CF73C40414FBA4201D1002719E0404F39
:102B1000BA4201D1012714E03E4FBA4201D1022747
:102B20000FE03D4FBA4201D103270AE03B4FBA42C2
:102B300001D1042705E03A4FBA4201D1052700E050
:102B400006274FEA807C4FEA1C7C07FA0CF7A74265
:102B500030D187074FEA177C0F2707FA0CF42A4F6A
:102B60004FEA900C57F82C70A743DFF89CC04FEA4F
:102B700090084CF828702B4F3F688F43DFF8A4C0B3
:102B8000CCF800700CF104073F688F430CF1040C83
:102B9000CCF800700CF104073F688F430CF1040C73
:102BA000CCF800700CF104073F688F430CF1040C63
:102BB000CCF80070FF2901D8174600E0171D3D46EC
:102BC000FF2901D8870002E0A0F10807BF003E46B8
:102BD0002F684FF00F0C0CFA06FC27EA0C074FF099
:102BE000040C0CFA06FC00E005E047EA0C072F6035
:102BF000D7688F43D760401C23FA00F7002F7FF47B
:102C00006FAFBDE8F08100000800014000080140FE
:102C1000000C014000100140001401400018014068
:102C2000001C0140000401402DE9F8470246002342
:102C30009C467BE14FF0010808FA03F4D1F80080CC
:102C400008EA0400A0427DD1DFF8F4A2D1F80480A4
:102C5000A8EB0A09D0453AD014DCB8F1030F50D0E4
:102C600009DCB8F1000F31D0B8F1010F1CD0B8F178
:102C7000020F49D120E0B8F1110F18D0B8F1120FAE
:102C800042D11EE0B9F5881F25D006DCB9F5803F9A
:102C900020D0B9F5801F37D11AE0B9F5001F18D040
:102CA000B9F5041F30D117E0D1F80CC02DE0D1F8F0
:102CB0000C8008F1040C28E0D1F80C8008F1080C15
:102CC00023E0D1F80C8008F10C0C1EE000BF00BF1F
:102CD00000BF00BF00BF00BFD1F80880B8F1000FEF
:102CE00002D14FF0040C0BE0D1F80880B8F1010FCD
:102CF00003D14FF0080C146102E04FF0080C54614E
:102D000003E04FF0000C00E000BF00BFFF2801D837
:102D1000904601E002F104084646FF2802D84FEA37
:102D2000830803E0A3F108084FEA88084746D6F86D
:102D300000804FF00F0909FA07F928EA09080CFA90
:102D400007F900E07AE048EA0908C6F80080D1F8FF
:102D5000048008F08058B8F1805F6FD100BFDFF8C1
:102D6000E481D8F8188048F00108DFF8D891C9F854
:102D70001880C846D8F8188008F00108CDF80080FF
:102D800000BF00BF4FEAB9384FEA930958F82950FD
:102D90004FEA83784FEA18794FF00F0808FA09F8DC
:102DA00025EA0805DFF8A081424502D14FF000086E
:102DB00024E0DFF89881424502D14FF001081DE080
:102DC000DFF88C81424502D14FF0020816E0DFF8AF
:102DD0008481424502D14FF003080FE0DFF878818B
:102DE000424502D14FF0040808E0DFF87081424507
:102DF00002D14FF0050801E04FF006084FEA837951
:102E00004FEA197908FA09F848EA0505DFF8508110
:102E10004FEA930948F82950D1F8048008F4803823
:102E2000B8F5803F0BD1DFF83C81D8F8008048EA44
:102E30000008DFF83091C9F800800AE075E0DFF89B
:102E40002481D8F8008028EA0008DFF81891C9F832
:102E50000080D1F8048008F40038B8F5003F0ED1A6
:102E6000DFF8008108F10408D8F8008048EA00087B
:102E7000DFF8F09009F10409C9F800800DE0DFF8EF
:102E8000E48008F10408D8F8008028EA0008DFF898
:102E9000D49009F10409C9F80080D1F8048008F43D
:102EA0008018B8F5801F0ED1DFF8B88008F1080847
:102EB000D8F8008048EA0008DFF8A89009F108096E
:102EC000C9F800800DE0DFF89C8008F10808D8F808
:102ED000008028EA0008DFF88C9009F10809C9F899
:102EE0000080D1F8048008F40018B8F5001F0ED156
:102EF000DFF8708008F10C08D8F8008048EA000874
:102F0000DFF8609009F10C09C9F800800DE0DFF8E6
:102F1000548008F10C08D8F8008028EA0008DFF88F
:102F2000449009F10C09C9F800805B1CD1F80080BD
:102F300028FA03F8B8F1000F7FF47CAEBDE8F887FB
:102F4000000011100010024000080140000C014078
:102F5000001001400014014000180140001C014015
:102F60000800014000040140024693680B400BB189
:102F7000012000E0002070470AB1016101E00B046C
:102F8000036170470148006870470000AC000020F2
:102F900003480068034909780844014908607047FC
:102FA000AC000020B400002010B50848006840F0D4
:102FB000100006490860032000F0CCF80F2000F054
:102FC00007F800F049F8002010BD00000020024082
:102FD00070B588B00446002500260022214619203D
:102FE00000F07AF8192000F067F800BF16488069F1
:102FF00040F40060144988610846806900F400606C
:10300000019000BF00BF02A903A801F053F901F02D
:1030100089F905460D48B5FBF0F0461E0C480D49F0
:10302000086040F2E7310B48C16046600021016151
:10303000816002F0F1F820B9064802F041F908B0C9
:1030400070BD0120FBE700000010024040420F006D
:10305000002C01408828002008B500BF1448806972
:1030600040F00100124988610846806900F00100C3
:10307000009000BF00BF00BF0846C06940F080500C
:10308000C8610846C06900F08050009000BF00BFD2
:1030900000220F21901E00F01FF800BF054948686C
:1030A00020F0E06040F08070486000BF08BD000084
:1030B000001002400000014001460846002809DBDC
:1030C00000F01F0301229A4043099B0003F1E02313
:1030D000C3F8002100BF70472DE9F05F80460D4620
:1030E0001646002707F056FA074639462A46334661
:1030F00001F00700C0F1070ABAF1040F02D94FF03E
:10310000040A01E0C0F1070AD14600F1040ABAF14D
:10311000070F02D24FF0000A01E0A0F1030AD446E3
:103120004FF0010A0AFA09FAAAF1010A0AEA020AA8
:103130000AFA0CFA4FF0010B0BFA0CFBABF1010B86
:103140000BEA030B4AEA0B042146404607F02AFA31
:10315000BDE8F09F00BF00F00702064B19684FF66C
:10316000FF031940044B0B4343EA0221014B196052
:1031700000BF70470CED00E00000FA0570B5054691
:103180000C4604F08000802808D104F0070000EB12
:10319000800605F1280000EBC60105E004EB84067B
:1031A00005F5B47000EBC6011AB900200873CB8096
:1031B00004E0012008730B81180C4881002070BDC9
:1031C000704770B504460D4605EB850304F12801F0
:1031D00001EBC3014A692946D4F8E80204F0DEFF96
:1031E00070BD70B504460D4605EB850304F5B4715A
:1031F00001EBC3014A692946D4F8E80205F04EF80C
:1032000070BD70B504460E4606F0800080280AD1D5
:1032100006F0070000EB800104F1280000EBC10577
:103220000120687009E006F0070000EB800104F55A
:10323000B47000EBC1050020687006F0070028702C
:1032400000BF94F8A802012801D1022070BD01201E
:1032500084F8A80200BF2946206806F053F800BF92
:10326000002084F8A80200BF00BFEFE770B5044655
:103270000E4606F00F006168884201D9012070BD3A
:1032800006F0800080280AD106F0070000EB8001DC
:1032900004F1280000EBC1050120687009E006F088
:1032A000070000EB800104F5B47000EBC1050020BD
:1032B00068700020A87006F00700287000BF94F81E
:1032C000A802012801D10220D9E7012084F8A80230
:1032D00000BF2946206806F071F900BF002084F87D
:1032E000A80200BF00BFCAE72DE9F04105460C4621
:1032F000174607F48040002850D02868B0F85010D6
:10330000207801EBC000801C296801F5806131F84C
:103310001000C0F30906A069B04203D3A069801B66
:10332000A06101E00020A061A069A8B900BF2278D7
:103330005200296831F812104BF68F7201EA020030
:1033400080F4005040F4004141F0800123785B009C
:103350002A6822F8131000BF07F04000A8B100BF90
:1033600000BF22785200296831F8121048F68F7297
:1033700001EA020040F4004141F0C00123785B0003
:103380002A6822F8131000BF00BF002E55D02289F2
:1033900061693346286806F099FF4EE02868B0F866
:1033A0005010207801EBC000801D296801F5806174
:1033B00031F81000C0F30906A069B04203D3A06938
:1033C000801BA06101E00020A061A069A8B900BF36
:1033D00022785200296831F812104BF68F7201EAF8
:1033E000020080F4005040F4004141F08001237855
:1033F0005B002A6822F8131000BF07F04000A8B94C
:1034000000BF00BF22785200296831F8121048F638
:103410008F7201EA020040F4004141F0C0012378BC
:103420005B002A6822F8131000BF00BF2EB162892A
:1034300061693346286806F049FF3046BDE8F081EF
:103440002DE9F04705460C46904608F0400000285C
:1034500071D02868B0F85010207801EBC000801CB3
:10346000296801F5806131F81000C0F30907A069EF
:10347000B84203D9A069C01BA06101E00020A0618F
:10348000A06900287ED100BF6078C8B900BF296854
:103490002A68B2F8502011442278022303EBC202BA
:1034A00001F5806303EB420000BF028848F2FF335E
:1034B0001A400280028842F40042028000BF13E0FA
:1034C0006078012810D100BF28682A68B2F850201F
:1034D00010442278022303EBC20200F5806303EB61
:1034E000420100220A8000BF00BF00BF2968607847
:1034F00010BB00BF2B68D5F800C0BCF850C06344B7
:1035000094F800C04FF0060909EBCC0C03F5806974
:1035100009EB4C0000BFB0F800C048F2FF390CEADC
:10352000090CA0F800C0B0F800C04CF4004CA0F8A2
:1035300000C000BF11E0C0E0607801280DD128680C
:10354000B0F8500001442078062303EBC00001F5D9
:10355000806303EB40020020108000BF21782846E2
:10356000FFF72FFE08F48040002816D000BF00BFF0
:1035700022785200296831F8121048F68F7201EA59
:10358000020000E00AE040F4004141F48141237868
:103590005B002A6822F8131000BFCAE108F48040DB
:1035A000A8B100BF00BF22785200296831F812107C
:1035B00048F68F7201EA020040F4004141F4814272
:1035C00023785B00296821F8132000BF00BF94F81E
:1035D00024000128E1D1606938446061E069384421
:1035E000E0612169206A884204D32669206A801B31
:1035F00020620BE0206A20B93E46002084F82400B7
:1036000004E0002084F82400266A206200BF60786D
:10361000B8BB00BF2A682968B1F850100A44217865
:10362000022303EBC10102F5806303EB410108466D
:1036300000BF56B9038848F2FF3C03EA0C0303803D
:10364000038843F40043038019E03E2E0BD800BFEB
:10365000710806F0010303B1491C4FF6FF7303EA3A
:10366000812303800BE000BF710906F01F0303B93B
:10367000491E4FF4004343EA8123038000BF00BF8B
:1036800013E0FFE7607801280FD100BF28682A689F
:10369000B2F8502010442278022303EBC20200F556
:1036A000806303EB42010E8000BF00BFB3B22289EA
:1036B0006169286806F039FE3BE12868B0F85010CF
:1036C000207801EBC000801D296801F5806131F888
:1036D0001000C0F30907A069B84203D3A069C01B5A
:1036E000A06101E00020A061A06900287DD100BF99
:1036F0006078C8B900BF29682A68B2F85020114420
:103700002278022303EBC20201F5806303EB42003F
:1037100000BF028848F2FF331A400280028842F458
:103720000042028000BF13E06078012810D100BF82
:1037300028682A68B2F8502010442278022303EB4C
:10374000C20200F5806303EB420100220A8000BF41
:1037500000BF00BF2968607808BB00BF2B68D5F8A0
:1037600000C0BCF850C0634494F800C04FF0060994
:1037700009EBCC0C03F5806909EB4C0000BFB0F8F5
:1037800000C048F2FF390CEA090CA0F800C0B0F8FC
:1037900000C04CF4004CA0F800C000BF10E06078FE
:1037A00001280DD12868B0F8500001442078062384
:1037B00003EBC00001F5806303EB400200201080A2
:1037C00000BF21782846FFF7FCFC08F48040002861
:1037D00016D100BF00BF22785200296831F81210BC
:1037E00048F68F7201EA020000E00AE040F400416E
:1037F00041F4814123785B002A6822F8131000BF4E
:1038000097E008F48040A8B900BF00BF22785200BA
:10381000296831F8121048F68F7201EA020040F46C
:10382000004141F4814123785B002A6822F813109B
:1038300000BF00BF94F8240001287AD160693844A1
:103840006061E0693844E0612169206A884204D3FC
:103850002669206A801B20620BE0206A20B93E4660
:10386000002084F8240004E0266A0020206284F806
:10387000240000BF2A68607890BB00BFD5F800C064
:103880002968B1F850108C4421784FF0060909EBF3
:10389000C1010CF5806909EB4101084600BF76B90A
:1038A000B0F8009048F2FF3A09EA0A09A0F800903F
:1038B000B0F8009049F40049A0F8009020E03E2EB6
:1038C0000FD800BF710806F00109B9F1000F00D050
:1038D000491C4FF6FF7909EA8129A0F800900FE012
:1038E00010E000BF710906F01F09B9F1000F00D107
:1038F000491E4FF4004949EA8129A0F8009000BF11
:1039000000BF0FE0607801280CD12868B0F85000A3
:1039100002442078062101EBC00002F5806101EB32
:1039200040031E8000BFB3B262896169286806F057
:10393000FCFC00BF22785200296831F8121048F6CA
:10394000BF7201EA020080F0100080F0200040F415
:10395000004141F0800123785B002A6822F81310AF
:1039600000BF0020BDE8F08770B504460D4600BFDB
:1039700094F8A802012801D1022070BD012084F82A
:10398000A80200BF05F08000802805D105F00701DE
:10399000206806F07FFC02E0206806F078FC00BF9B
:1039A000002084F8A80200BF00BFE6E7024601F04D
:1039B000070000EB800302F5B47000EBC300C069A0
:1039C00070472DE9F04705460E4690461F464FF0DA
:1039D000000906F0800080280AD106F0070000EBFD
:1039E000800105F1280000EBC1040120607009E0AE
:1039F00006F0070000EB800105F5B47000EBC10490
:103A00000020607006F007002070C4F81080E77096
:103A1000607808B12078E081022F01D10020207168
:103A200000BF95F8A802012802D10220BDE8F08766
:103A3000012085F8A80200BF2146286805F038FA61
:103A400000BF002085F8A80200BF4846EEE72DE938
:103A5000F04105460E461746984606F0070000EB73
:103A6000800105F5B47000EBC1046761C4F81880EB
:103A70000020E061607006F00700207006F007008B
:103A800020B92146286805F034FE03E02146286865
:103A900005F02FFE0020BDE8F08170B504460D460C
:103AA00005F007006168884201D9012070BD05F06A
:103AB000800080280AD105F0070000EB800104F1A6
:103AC000280000EBC1060120707007E005EB8501BE
:103AD00004F5B47000EBC106002070700120B070D6
:103AE00005F00700307000BF94F8A802012801D14A
:103AF0000220DBE7012084F8A80200BF31462068DD
:103B000005F0C9FD05F0070020B904F52C71206807
:103B100005F051FD00BF002084F8A80200BF00BFDF
:103B2000C4E72DE9F04105460E4690461F4606F0D3
:103B3000070000EB800105F1280000EBC104C4F888
:103B40001480A761012084F8240027620020E0612E
:103B50000120607006F00700207006F0070020B911
:103B60002146286805F0C5FD03E02146286805F0D8
:103B7000C0FD0020BDE8F0817FB50446206806F056
:103B8000A1FB00F40040B0F5004F02D1204602F046
:103B9000FFF8206806F096FB00F48060B0F5806FB7
:103BA0000FD12068B0F844004FF6FF31084021687B
:103BB000A1F84400204600F09FF90021204600F0C3
:103BC000C7F9206806F07EFB00F48040B0F5804F16
:103BD00008D12068B0F844004BF6FF710840216816
:103BE000A1F84400206806F06DFB00F40050B0F529
:103BF000005F08D12068B0F844004DF6FF7108401E
:103C00002168A1F84400206806F05CFB00F48050B5
:103C1000B0F5805F1DD12068B0F840004FF6FB7111
:103C200008402168A1F840002068B0F840004FF635
:103C3000F77108402168A1F84000204600F07AF9A9
:103C40002068B0F844004EF6FF7108402168A1F8E2
:103C50004400206806F036FB00F40060B0F5006F09
:103C600055D1002507E06900206830F811002DF8D3
:103C70001500681CC5B2082DF5D32068B0F84000C7
:103C800040F001002168A1F840002068B0F8400031
:103C90004FF6FE7108402168A1F8400000BF20687F
:103CA000B0F8440000F480600028F8D02068B0F834
:103CB00044004FF6FF3108402168A1F84400002578
:103CC00007E03DF815006A00216821F81200681C21
:103CD000C5B2082DF5D32068B0F8400040F00800C8
:103CE0002168A1F840002068B0F844004FF2FF714D
:103CF00008402168A1F844002068B0F8400040F076
:103D000004002168A1F84000204600F063F9206813
:103D100006F0D8FA00F40070B0F5007F0BD12068EF
:103D2000B0F844004FF6FF5108402168A1F8440064
:103D3000204600F006F9206806F0C4FA00F480700E
:103D4000B0F5807F08D12068B0F844004FF6FF61DD
:103D500008402168A1F844007FBD30B585B0044615
:103D600014B9012005B030BD94F8A90228B900208B
:103D700084F8A802204600F09DF8032084F8A902E8
:103D8000206805F00EFC142204F110016846FCF7CF
:103D9000DEFD94E80F0005F0B1FA20B1022084F8AE
:103DA000A9020120DEE70021206806F0B4FA002510
:103DB00031E0012105EB850204F1280000EBC2008F
:103DC000417005EB850104F1280000F8315005EB46
:103DD000850100EBC100C581002105EB850204F1DE
:103DE000280000EBC200C17005EB850204F1280039
:103DF00000EBC200016105EB850204F1280000EB35
:103E0000C200416105EB850204F1280000EBC2000D
:103E10008161681CC5B26068A842CAD800252AE042
:103E2000002105EB850204F5B47000EBC20041707F
:103E300005EB850104F5B47000F83150002105EB65
:103E4000850200EBC200C17005EB850204F5B47079
:103E500000EBC200016105EB850204F5B47000EBD4
:103E6000C200416105EB850204F5B47000EBC200AD
:103E70008161681CC5B26068A842D1D8142204F1DF
:103E800010016846FCF763FD94E80F0005F07EFB27
:103E900020B1022084F8A902012063E7002084F801
:103EA0002400012084F8A902206805F06CFB0020A2
:103EB00058E7000038B504460D492068884215D1FE
:103EC00000BF0C48C06940F400000A49C8610846B8
:103ED000C06900F40000009000BF00BF002205216F
:103EE0001420FFF7F9F81420FFF7E6F838BD0000BA
:103EF000005C00400010024070B504460125A06837
:103F0000022803D0BC2106A0FEF7C8F82946D4F841
:103F1000E80204F011FBD4F8E80204F0C3FA70BD23
:103F20002E2E2F5372632F757362645F636F6E66FC
:103F30002E63000010B50446D4F8E80204F0E0FA5D
:103F400010BD10B50446D4F8E80204F0E4FA10BD40
:103F500070B504460D4600BF94F8A802012801D1AF
:103F6000022070BD012084F8A80200BF84F824500C
:103F70002946206806F0D2F900BF002084F8A80284
:103F800000BF00BFEDE710B5044604F52C71D4F86E
:103F9000E80204F0E8FA10BD10B5044600BF94F83A
:103FA000A802012801D1022010BD012084F8A80236
:103FB00000BF206806F062F901212046FFF700F9F2
:103FC000206805F0DDFA00BF002084F8A80200BFD9
:103FD00000BFE9E710B50446D4F8E80204F01CFB82
:103FE000A06928B10348006840F006000149086054
:103FF00010BD000010ED00E0F8B5044600260025D5
:10400000207800F0010000286BD000274348C069E9
:1040100000F0805070B900BF4048C06940F0805047
:104020003E49C8610846C06900F08050009000BF5A
:1040300000BF01273A48006800F48070B0B93848E2
:10404000006840F4807036490860FEF79BFF064622
:1040500006E0FEF797FF801B642801D90320F8BD16
:104060002F48006800F480700028F2D02B48006AC6
:1040700000F440752DB3A08800F44070A84220D011
:104080002648006A20F44075012026490860002077
:1040900008602248056205F0010090B1FEF772FF4A
:1040A000064608E0FEF76EFF801B41F28831884229
:1040B00001D90320D3E71948006A00F00200002864
:1040C000F0D01648006A20F4407061680843134934
:1040D0000862012F04D10846C06920F08050C861F1
:1040E00000BF207800F00200022807D10B4840688A
:1040F00020F44040A168084308494860207800F057
:104100001000102807D10548406820F4800061693C
:104110000843024948600020A1E700000010024067
:10412000007000404004424270B504460D460CB990
:10413000012070BD5A48006800F00700A8420ED266
:104140005748006820F00700284355490860084692
:10415000006800F00700A84201D00120E9E72078BC
:1041600000F0020002281DD1207800F0040004288D
:1041700005D14C48406840F4E0604A4948602078E6
:1041800000F00800082805D14648406840F4605017
:10419000444948604348406820F0F000A168084363
:1041A00040494860207800F0010078B36068012839
:1041B00006D13C48006800F4003090B90120B8E70F
:1041C0006068022806D13748006800F0007040B9E6
:1041D0000120AEE73348006800F0020008B9012072
:1041E000A7E73048406820F00300616808432D4984
:1041F0004860FEF7C7FE064609E0FEF7C3FE801BD7
:1042000041F28831884202D9032092E707E025482D
:10421000406800F00C006168B0EB810FEDD12048E0
:10422000006800F00700A8420ED91D48006820F081
:10423000070028431A4908600846006800F0070094
:10424000A84201D0012074E7207800F0040004287F
:1042500007D11448406820F4E060E1680843114940
:104260004860207800F00800082808D10D48406810
:1042700020F46050216940EAC1000A49486000F01A
:1042800061F808494968C1F30311074A515CC84005
:104290000649086006480068FEF79AFE002048E7D5
:1042A0000020024000100240D4F6000894000020D4
:1042B000B00000200F2202600D4A526802F0030293
:1042C00042600B4A526802F0F0028260084A52686B
:1042D00002F4E062C260064A526802F46052D208F8
:1042E0000261044A126802F007020A607047000087
:1042F00000100240002002400148006870470000A2
:104300009400002000B5FFF7F7FF04494968C1F3A6
:104310000221034A515CC84000BD00000010024069
:10432000E4F6000800B5FFF7E7FF04494968C1F368
:10433000C221034A515CC84000BD00000010024089
:10434000E4F60008F0B585B00FF26C0C9CE8E010C4
:1043500001A8A0E8E0101CA52D680095002100220E
:10436000002300240020194D696801F00C05F5B107
:10437000042D02D0082D19D101E0154819E001AD36
:10438000C1F38346AC5D01F4803555B10F4D6D68C6
:10439000C5F340451DF805200D4D6543B5FBF2F30F
:1043A00002E00C4D04FB05F3184602E000BF08488C
:1043B00000BF00BF05B0F0BD0203040506070809F1
:1043C0000A0B0C0D0E0F101001020000001002402D
:1043D00000127A0000093D00F8B504460CB901202E
:1043E000F8BD207800F00100002878D0F848406837
:1043F00000F00C0004280CD0F548406800F00C00D8
:10440000082811D1F248406800F48030B0F5803FB0
:104410000AD1EF48006800F4003000285FD06068DF
:1044200000285CD10120DBE700BF6068B0F5803F69
:1044300006D1E748006840F48030E549086028E08C
:10444000606858B9E248006820F48030E0490860AC
:104450000846006820F4802008601AE06068B0F523
:10446000A02F0BD1DA48006840F48020D8490860BA
:104470000846006840F4803008600AE0D4480068CC
:1044800020F48030D24908600846006820F480207B
:10449000086000BF606888B1FEF774FD054606E05D
:1044A000FEF770FD401B642801D9032098E7C84837
:1044B000006800F400300028F2D010E0FEF762FD42
:1044C000054606E0FEF75EFD401B642801D9032087
:1044D00086E7BF48006800F400300028F2D1207859
:1044E00000F00200022857D1B948406800F00C00E3
:1044F00050B1B748406800F00C00082818D1B44803
:10450000406800F4803098B9B148006800F00200BB
:1045100020B12069012801D0012061E7AC48006882
:1045200020F0F800616940EAC100A949086033E061
:104530002069E8B10120A7490860FEF723FD054680
:1045400006E0FEF71FFD401B022801D9032047E7C4
:104550009F48006800F002000028F2D09C480068E4
:1045600020F0F800616940EAC1009949086013E051
:10457000002098490860FEF705FD054606E0FEF7B5
:1045800001FD401B022801D9032029E7904800685B
:1045900000F002000028F2D1207800F0080008287E
:1045A0002DD1A069B8B101208B490860FEF7EAFC63
:1045B000054606E0FEF7E6FC401B022801D9032071
:1045C0000EE78348406A00F002000028F2D0012084
:1045D00001F0D8FD13E000207F490860FEF7D2FC0F
:1045E000054606E0FEF7CEFC401B022801D9032059
:1045F000F6E67748406A00F002000028F2D1207801
:1046000000F00400042873D100277148C06900F04D
:10461000805070B900BF6E48C06940F080506C494E
:10462000C8610846C06900F08050009000BF00BF1C
:1046300001276A48006800F48070B0B967480068D4
:1046400040F4807065490860FEF79CFC054606E072
:10465000FEF798FC401B642801D90320C0E65F48A0
:10466000006800F480700028F2D000BFE0680128E4
:1046700006D15748006A40F001005549086227E01A
:10468000E06858B95248006A20F0010050490862B9
:104690000846006A20F00400086219E0E068052876
:1046A0000BD14B48006A40F00400494908620846B3
:1046B000006A40F0010008620AE04548006A20F004
:1046C0000100434908620846006A20F004000862BD
:1046D00000BFE068A0B1FEF755FC054609E0FEF713
:1046E00051FC401B41F28831884202D9032077E611
:1046F00022E03748006A00F002000028EFD012E004
:10470000FEF740FC054608E0FEF73CFC401B41F28A
:104710008831884201D9032062E62D48006A00F002
:1047200002000028F0D1012F05D12948C06920F0EE
:1047300080502749C86100BFE069C8B32448406879
:1047400000F00C00082860D0E069022848D1002061
:1047500020490866FEF716FC054606E0FEF712FC47
:10476000401B022801D903203AE61948006800F0EE
:1047700000700028F2D1206AB0F5803F07D11448BC
:10478000406820F40030A168084311494860D4E92A
:10479000080108430E49496821F4741108430C4983
:1047A000486001200B490866FEF7ECFB054607E070
:1047B0003DE0FEF7E7FB401B022801D903200FE68E
:1047C0000348006800F000700028F2D02FE00000DD
:1047D000001002400000424280044242007000404B
:1047E000002014490866FEF7CDFB054606E0FEF7FB
:1047F000C9FB401B022801D90320F1E50E480068DF
:1048000000F000700028F2D111E0E069012800D129
:10481000E6E50948466806F48031206A814204D101
:1048200006F47011606A814201D00120D8E50020B1
:10483000D6E500000000424200100240F0B589B009
:1048400004460E460027032084F83400606C0328D9
:1048500020D0B6F5805F04D1A06B40F08050A063FB
:104860001CE0B6F5006F07D1204602F079FE054640
:10487000A06B2843A06311E03EB9204602F03CFE45
:104880000546A06B2843A06308E0A06B40F00060E1
:10489000A06303E0A06B40F08050A063A06B38B130
:1048A000174821688863012084F83400012713E049
:1048B00060680390A0680490E068059006966069BF
:1048C0000790A069089006A807C88DE8070020682F
:1048D00003A90EC902F075F84FF40071206802F0C8
:1048E000EBF8054635B1064821688863A06B28437C
:1048F000A0630127012084F83400384609B0F0BDD8
:10490000FF05400010B50246506E800F0870506ED3
:10491000C0F383604870506EC0F301608870506EC1
:10492000000CC870B2F86400000A087192F86400C4
:104930004871906E000DC880906EC0F303400872FD
:104940006820805AC0F3C03048726820805AC0F393
:10495000803088726820805AC0F34030C872682066
:10496000805AC0F30030087300204873506C002850
:1049700036D16820805A8005030DD06E43EA9070CE
:104980000861D06EC0F3C2600875D06EC0F30260DB
:104990004875D06EC0F342508875D06EC0F3824027
:1049A000C875D06EC0F3C23008760869401C5065E7
:1049B0000B7E506D03F007039B1C01249C40604359
:1049C0005065087A00F00F03012098409065D2E905
:1049D00015035B0A5843D0654FF40073136621E05A
:1049E000506C012813D16820805C8006830AD06E49
:1049F00043EA104008610869401C83025365536D07
:104A0000D3654FF400739365936D13660AE02E48E7
:104A100013689863906B40F080509063012082F897
:104A2000340010BD6C20805AC0F3803001F8190F9B
:104A30006C20805AC0F3C61048706C20805C00F077
:104A40007F008870106FC00FC870106FC0F3417086
:104A50000871106FC0F382604871106FC0F383500B
:104A60008871106FC0F34050C87100200872106F39
:104A7000C0F3004048727020805AC0F3C030887282
:104A80007020805AC0F38030C8727020805AC0F302
:104A9000403008737020805AC0F300304873702093
:104AA000805AC0F3812088737020805AC0F301209F
:104AB000C8737020805CC0F34600087401204874FD
:104AC00019390020ADE70000FF0540000246506C98
:104AD0000860906C4860D06C8860106DC860506D44
:104AE0000861906D4861D06D8861106EC8610020CA
:104AF0007047F8B50446002000906946204602F051
:104B0000E3FC054615B1A06B2843A0630098C0F3F1
:104B100043263046F8BD014691F83400704710B581
:104B200004460CB9012010BD94F8340020B90020CF
:104B30002077204600F068F8032084F834002046EF
:104B400000F00CF808B10120EDE70020A06320631D
:104B5000012084F834000020E5E7000070B58AB039
:104B60000446002004900590069007900890762057
:104B7000099007A807C88DE80700206804A90EC996
:104B800001F01FFF064616B101200AB070BD0020DB
:104B90001B490860206801F02EFF01201849A03948
:104BA000C1F8A000204602F029FC05463DB10120D5
:104BB00084F83400A06B2843A0630120E5E7204679
:104BC00002F09BFB05463DB1012084F83400A06B48
:104BD0002843A0630120D8E74FF40071206801F05A
:104BE0006BFF05464DB1074821688863A06B2843D9
:104BF000A063012084F83400C7E70020C5E7000067
:104C0000A0003042FF05400010B586B004460020E9
:104C100002900390049005902149206888423CD17D
:104C200000BF2048406940F480601E494861084642
:104C3000406900F48060019000BF00BF00BF0846DB
:104C4000806940F0100088610846806900F010001B
:104C5000019000BF00BF00BF0846806940F02000FF
:104C600088610846806900F02000019000BF00BF05
:104C70004FF4F8500290022003900320059002A9FF
:104C80000948FDF7D1FF0420029002200390032081
:104C9000059002A90548FDF7C7FF06B010BD00004A
:104CA000008001400010024000100140001401404B
:104CB0002DE9FF4F89B004468B469946DDF858A090
:104CC000FEF760F902900B9800905D46BBF1000F73
:104CD00007D1A06B40F00060A06301200DB0BDE8DB
:104CE000F08F94F8340001287ED10020A063009852
:104CF00000EB0901E06D814205D9A06B40F0007026
:104D0000A0630120EAE7032084F834000020216832
:104D1000C862606C012802D00098400200904FF0F9
:104D2000FF3003904FEA4920049090200590022024
:104D30000690002007900120089003A9206801F048
:104D40001BFEB9F1010F07D90220206320680099EA
:104D500001F01AFF804606E00120206320680099D8
:104D600001F02EFF8046B8F1000F0DD07548216884
:104D70008863A06B40EA0800A063012084F8340037
:104D8000002020630120A9E7049E3AE02068406BE0
:104D900000F40040E0B1DEB10020019015E0206891
:104DA00001F032FE07462F706D1C761E380A2870FF
:104DB0006D1C761E380C28706D1C761E380E2870FF
:104DC0006D1C761E0198401C019001980828E6D3BE
:104DD000FEF7D8F80299401A504502D2BAF1000FF6
:104DE0000FD15848216800E0A6E08863A06B40F02E
:104DF0000040A063012084F83400002020630320D9
:104E00006CE72068406B40F22A3108400028BDD092
:104E10002068406B00F48070D0B1B9F1010F17D950
:104E2000606C032814D0206801F08AFF8046B8F136
:104E3000000F0DD0434821688863A06B40EA08004A
:104E4000A063012084F8340000202063012045E79E
:104E50002068406B00F0080068B13A482168886318
:104E6000A06B40F00800A063012084F8340000200B
:104E70002063012032E72068406B00F0020068B137
:104E8000304821688863A06B40F00200A0630120D5
:104E900084F834000020206301201FE72068406B65
:104EA00000F0200068B1274821688863A06B40F0BB
:104EB0002000A063012084F834000020206301203A
:104EC0000CE729E0206801F09FFD07462F706D1C5C
:104ED000761E380A28706D1C761E380C28706D1CE2
:104EE000761E380E28706D1C761EFEF74BF8029960
:104EF000401A504502D2BAF1000F0DD11148216875
:104F00008863A06B40F00040A063012084F8340067
:104F1000002020630120E1E62068406B00F40010CF
:104F200008B1002ECED140F23A50216888630120AA
:104F300084F834000020D1E6A06B40F00050A0635C
:104F40000120CBE6FF0540002DE9F04F89B0044673
:104F5000894693469846FEF715F80290DA464D4684
:104F6000B9F1000F07D1A06B40F00060A0630120F1
:104F700009B0BDE8F08F94F8340001287ED10020FC
:104F8000A0630AEB0801E06D814205D9A06B40F0F7
:104F90000070A0630120EBE7032084F834000020B8
:104FA0002168C862606C012801D04FEA4A2A4FF09C
:104FB000FF3003904FEA4820049090200590002095
:104FC000069007900120089003A9206801F0D4FC06
:104FD000B8F1010F07D9202020635146206801F065
:104FE000CDFE064606E0102020635146206801F001
:104FF000E1FE064666B15F4821688863A06B3043D6
:10500000A063012084F83400002020630120AFE772
:10501000049F43E02068406B00F4804030B32FB31E
:10502000002001901FE0287800906D1C7F1E2878DA
:10503000009941EA002000906D1C7F1E287800999D
:1050400041EA004000906D1C7F1E2878009941EADB
:10505000006000906D1C7F1E6946206801F0ECFC2A
:105060000198401C019001980828DCD3FDF78AFFC5
:105070000299411A1298814203D200E074E012981A
:1050800060B93C4821688863A06B3043A06301206D
:1050900084F8340000202063032069E72068406B17
:1050A00040F21A3108400028B4D02068406B00F468
:1050B0008070B8B1B8F1010F14D9606C032811D019
:1050C000206801F03DFE064666B12A4821688863E3
:1050D000A06B3043A063012084F8340000202063DB
:1050E000012045E72068406B00F0080068B12148C6
:1050F00021688863A06B40F00800A063012084F859
:10510000340000202063012032E72068406B00F06B
:10511000020068B1174821688863A06B40F0020064
:10512000A063012084F834000020206301201FE7E1
:105130002068406B00F0100068B10E482168886359
:10514000A06B40F01000A063012084F83400002020
:10515000206301200CE740F23A5021688863012067
:1051600084F83400002003E7A06B40F00050A063F7
:105170000120FDE6FF0540007047704730B502464C
:105180000B4600BF92F83C00012801D1022030BD3F
:10519000012082F83C0000BF022082F83D00106828
:1051A00044681068816824F070041868044310682B
:1051B0004460144D1068A84213D0134D1068A842E3
:1051C0000FD01068B0F1804F0BD0104D1068A8427E
:1051D00007D00F4D1068A84203D00E4D1068A842AA
:1051E00005D121F0800158680143106881600120D9
:1051F00082F83D0000BF002082F83C0000BF00BFE5
:10520000C5E70000002C01400034014000040040CC
:1052100000080040000C004010B504460CB9012005
:1052200010BD94F83D0028B9002084F83C002046C9
:1052300000F026F8022084F83D00211D206802F0CD
:1052400079FB012084F8460000BF84F83E0001216C
:105250003F200155402001554120015500BF00BFAE
:10526000012084F842004320015544200155452087
:10527000015500BF012084F83D000020D0E7000068
:1052800038B504462068B0F1804F15D100BF0B48F7
:10529000C06940F001000949C8610846C06900F0D2
:1052A0000100009000BF00BF002205211C20FDF777
:1052B00013FF1C20FDF700FF38BD00000010024066
:1052C000014691F83D00012801D0012070470220DD
:1052D00081F83D000868C06840F001000B68D860A4
:1052E000164B0868984213D0154B086898420FD0A7
:1052F0000868B0F1804F0BD0124B0868984207D075
:10530000114B0868984203D0104B086898420CD1A2
:105310000868806800F00702062A0CD00868006858
:1053200040F001000B68186005E00868006840F074
:1053300001000B6818600020C8E70000002C014045
:10534000003401400004004000080040000C004010
:105350002DE9F04104460D4600BF94F83C000128B9
:1053600002D10220BDE8F081012084F83C0000BF9A
:10537000022084F83D002068866826F0770626F42F
:105380007F46206886602868502833D00CDC2028AF
:1053900050D004DC00284BD0102851D149E03028EF
:1053A00049D040284CD139E060282DD0702807D052
:1053B000B0F5805F03D0B0F5005F41D10DE040E073
:1053C000D5E902136A68206802F002FB206886684B
:1053D00046F077062068866033E0D5E902136A68F4
:1053E000206802F0F5FA2068806840F48040216867
:1053F000886026E0EA686968206802F0FDFA5021BA
:10540000206802F0F0FA1CE0EA686968206802F09F
:1054100006FB6021206802F0E6FA12E0EA6869689B
:10542000206802F0E9FA4021206802F0DCFA08E086
:1054300000BF00BF00BF2968206802F0D4FA00E076
:1054400000BF00BF012084F83D0000BF002084F8A9
:105450003C0000BF00BF85E7704710B504462068D8
:105460000069C0F34000D8B12068C068C0F34000B4
:10547000B0B16FF002002168086101202077206838
:10548000806900F0030018B12046FFF7E5FF05E052
:10549000204600F0ADF8204600F0ABF80020207761
:1054A00020680069C0F38000D8B12068C068C0F3EC
:1054B0008000B0B16FF004002168086102202077FD
:1054C0002068806900F4407018B12046FFF7C4FFDF
:1054D00005E0204600F08CF8204600F08AF8002015
:1054E000207720680069C0F3C000D8B12068C06888
:1054F000C0F3C000B0B16FF008002168086104205B
:1055000020772068C06900F0030018B12046FFF73B
:10551000A3FF05E0204600F06BF8204600F069F894
:105520000020207720680069C0F30010D8B12068FF
:10553000C068C0F30010B0B16FF0100021680861BE
:10554000082020772068C06900F4407018B1204618
:10555000FFF782FF05E0204600F04AF8204600F001
:1055600048F8002020772068006900F0010058B159
:105570002068C06800F0010030B16FF001002168C0
:105580000861204600F036F820680069C0F3C010BA
:1055900058B12068C068C0F3C01030B16FF080000F
:1055A000216808612046FFF7E7FD20680069C0F325
:1055B000801058B12068C068C0F3801030B16FF01F
:1055C000400021680861204600F028F82068006942
:1055D000C0F3401058B12068C068C0F3401030B12B
:1055E0006FF02000216808612046FFF7C6FD10BD5E
:1055F0007047704710B5044607492068884202D1B9
:10560000FDF7C6FC06E02068B0F1804F02D1032010
:1056100005F0B2F810BD0000002C0140704710B535
:1056200004460CB9012010BDA06900B100E000BF24
:1056300094F83D0028B9002084F83C00204600F092
:1056400027F8242084F83D002068C06820F400502A
:105650002168C860204602F0F7F92068006920F44C
:105660009040216808612068406920F02A00216884
:1056700048612068C06840F400502168C86000207C
:105680002064202084F83D0084F83E000020CAE712
:1056900010B586B004460020029003900490059057
:1056A0001A49206888422ED100BF1948806940F409
:1056B0008040174988610846806900F48040019065
:1056C00000BF00BF00BF0846806940F00400886149
:1056D0000846806900F00400019000BF00BF481533
:1056E0000290022003900320059002A90948FDF7CB
:1056F0009BFA4FF48060029000200390049002A96E
:105700000448FDF791FA06B010BD000000380140D2
:10571000001002400008014000B585B000BF2648D7
:10572000806940F00400244988610846806900F0DF
:105730000400009000BF00BF00BF0846806940F031
:10574000040088610846806900F00400009000BFF2
:1057500000BF00BF0846806940F480408861084669
:10576000806900F48040009000BF00BF48150190A0
:10577000022002900320049001A91048FDF754FA7A
:105780004FF48060019000200290039001A90B4823
:10579000FDF74AFA002202212520FDF79DFC252075
:1057A000FDF78AFC0C2300224FF4E131044805F098
:1057B00009F805B000BD00000010024000080140DB
:1057C0000038014030B50B46002100BF16E00A2426
:1057D000B4EB107F05D9302404EB107403F81140AA
:1057E00005E0412404EB10740A3C03F81140000169
:1057F00000254C00641C1D554C1CE1B29142E6DBB7
:1058000030BD70B50546D5F8B8424FF40670005D5E
:1058100048B94FF40570005928B1607A18B90121D0
:10582000284602F0D7FE8121284602F0D3FE607A96
:10583000022806D11F2304F503720121284602F035
:1058400019FE70BD70B50546D5F8B8424FF4047026
:1058500001594FF40C7001514FF4057001594FF488
:105860000D7001510121284602F07EFD1F2810D144
:105870002A49D4F80C0288420BD140F21920005D6D
:10588000012806D84815005D18B14815005D10289C
:105890000DD940F21920015D20230522284600F091
:1058A00069FF022060722846FFF7ABFF33E040F249
:1058B0001920015D04F21B22284600F0EFFC0028AD
:1058C0000BDA207A052804D10121284600F0C0F81F
:1058D00021E02846FFF795FF1DE0207A022819D025
:1058E000207A012816D0207A032813D0608930B19D
:1058F000628904F10C01284600F0C8F80BE06089C9
:1059000020B90021284600F0A3F804E02846FFF75C
:1059100078FF00E070BD00BFFCE700005553424334
:1059200070B506460D46D6F8B842607A022806D110
:105930008121304602F04EFE002060720CE005F03E
:105940008000802807D1607A012804D001213046E8
:1059500000F07EF800E070BD00BFFCE770B50546C2
:105960000E46D5F8B842207A022804D0032812D077
:10597000042815D10EE040F21920015D04F21B222B
:10598000284600F08BFC002803DA0121284600F0AD
:105990005FF806E000BF0021284600F059F800E05B
:1059A00000BF00BF70BD70B505460E46D5F8B842C1
:1059B000207A10B1012813D103E02846FFF742FFF7
:1059C0000FE040F21920015D04F21B22284600F08E
:1059D00065FC002803DA0121284600F039F800E0D0
:1059E00000BF00BF70BDD0F8B81200220A72704725
:1059F00070B50546D5F8B84200202072607284F870
:105A00005D0284F85C02D5F8BC020168002088477A
:105A10000121284602F095FC8121284602F091FCE4
:105A20001F2304F503720121284602F023FD70BDF7
:105A300070B50546D5F8B84200202072012060728A
:105A40001F2304F503720121284602F013FD70BDE7
:105A500070B505460E46D5F8B8420B48C4F82C027E
:105A60004FF40E700655002020720D2304F50B72C2
:105A70008121284602F0DAFD1F2304F5037201217B
:105A8000284602F0F7FC70BD555342532DE9F04112
:105A900006460F461546D6F8B8424FF40570005931
:105AA000A84203D24FF40570005900E028461FFABF
:105AB00080F84FF40D700059411B4FF40D700151E7
:105AC0000021001D01550420207243463A468121E1
:105AD000304602F0ABFDBDE8F081000010B50F4884
